:100000000C942A000C943F000C943F000C943F0089
:100010000C943F000C943F000C943F000C943F0064
:100020000C943F000C943F000C943F000C943F0054
:100030000C943F000C943F000C943F000C943F0044
:100040000C943F000C943F000C943F000C943F0034
:100050000C943F0011241FBECFE5D4E0DEBFCDBF1E
:1000600010E0A0E6B0E0ECE4F3E002C005900D92F1
:10007000AA36B107D9F70E94DB000C94A4010C94B6
:1000800000009C01207F33272C5F28BBE9EFF0E0C4
:100090003197F1F700C0000098B3945098BB829557
:1000A000807F8C5F88BB89EF90E00197F1F700C0FB
:1000B000000088B3845088BB089582E090E00E94DD
:1000C000410088E290E00E9441008CE090E00E94B4
:1000D000410086E090E00E94410008959C01207F4D
:1000E00033272B5F28BBE9EFF0E03197F1F700C031
:1000F000000028B3245028BB82959295907F9827C2
:10010000807F98278B5F88BB89EF90E00197F1F79C
:1001100000C0000088B3845088BB0895CF93DF935C
:10012000EC018881882339F0219690E00E946E00CE
:1001300089918111FACFDF91CF9108950F931F9389
:10014000CF93DF93EC01009761F580E390E00E948C
:100150006E0084E090E00E94410028C09E01ADEC5A
:10016000BCEC0E9498018C01169507951695079591
:10017000169507959801220F331FC801880F991F04
:10018000880F991F880F991F820F931F9E01281BAC
:10019000390BC901C0960E946E00E8012097F1F664
:1001A00005C084E090E00E944100D8CFDF91CF915C
:1001B0001F910F9108958FEF87BB0E945D00689497
:1001C000CC24C1F8D12CAA24A394B12C68948824FF
:1001D00081F8912CA9C080E890E00E94410080E65F
:1001E00090E00E948E008AE890E00E944100C801E1
:1001F0000E949E0080EC90E00E944100C8010E9495
:100200009E0081EC90E00E9441008AE290E00E9412
:100210006E0082EC90E00E944100CE010E949E00A0
:1002200083EC90E00E9441008DE390E00E946E001C
:1002300086EC90E00E944100C7010E949E002FE3DF
:100240008DE093E0215080409040E1F700C0000035
:10025000C5010E94410083EC99E00197F1F700C0CD
:1002600000002196E00EF11EC530D10509F0B3CF94
:100270007601EE0CFF1CEE0CFF1CEC0CFD1C80E864
:1002800090E00E94410080E690E00E948E008AE8A3
:1002900090E00E944100C8010E949E0080EC90E026
:1002A0000E944100C8010E949E0081EC90E00E94E3
:1002B00041008AE290E00E946E0083EC90E00E9490
:1002C0004100CE010E949E0084EC90E00E9441001B
:1002D0008DE390E00E946E0086EC90E00E94410069
:1002E000C7010E949E009FE32DE083E091502040D3
:1002F0008040E1F700C00000C5010E94410083EC8E
:1003000099E00197F1F700C000002196E00EF11E80
:10031000CB30D10509F0B3CF9FEFC91AD90A2AE033
:10032000C216D1040CF0640186017601E50153CFB9
:10033000A29FB001B39FC001A39F01D0B29F700DD7
:0C034000811D1124911D0895F894FFCF39
:0A034C005461626C65206F662000AA
:00000001FF
